{
  "contractName": "MarketPlace",
  "abi": [
    {
      "inputs": [],
      "payable": false,
      "stateMutability": "nonpayable",
      "type": "constructor"
    },
    {
      "anonymous": false,
      "inputs": [
        {
          "indexed": false,
          "name": "_name",
          "type": "string"
        },
        {
          "indexed": false,
          "name": "_Hash",
          "type": "bytes32"
        },
        {
          "indexed": false,
          "name": "_SwarmHash",
          "type": "bytes32"
        },
        {
          "indexed": false,
          "name": "_Price",
          "type": "uint256"
        },
        {
          "indexed": false,
          "name": "_Description",
          "type": "string"
        },
        {
          "indexed": false,
          "name": "_FileID",
          "type": "uint256"
        },
        {
          "indexed": false,
          "name": "_SellerID",
          "type": "uint256"
        },
        {
          "indexed": false,
          "name": "_owner",
          "type": "address"
        }
      ],
      "name": "NewFile",
      "type": "event"
    },
    {
      "anonymous": false,
      "inputs": [
        {
          "indexed": false,
          "name": "_FileID",
          "type": "uint256"
        },
        {
          "indexed": false,
          "name": "_orderID",
          "type": "uint256"
        },
        {
          "indexed": false,
          "name": "_price",
          "type": "uint256"
        }
      ],
      "name": "EventCreateOrder",
      "type": "event"
    },
    {
      "anonymous": false,
      "inputs": [
        {
          "indexed": false,
          "name": "_owner",
          "type": "bool"
        },
        {
          "indexed": false,
          "name": "bayer",
          "type": "bool"
        },
        {
          "indexed": false,
          "name": "statusTransaktion",
          "type": "string"
        }
      ],
      "name": "eventApproveOrder",
      "type": "event"
    },
    {
      "anonymous": false,
      "inputs": [
        {
          "indexed": false,
          "name": "_orderID",
          "type": "uint256"
        },
        {
          "indexed": false,
          "name": "_complaint",
          "type": "string"
        },
        {
          "indexed": false,
          "name": "_owner",
          "type": "address"
        },
        {
          "indexed": false,
          "name": "_bayer",
          "type": "address"
        }
      ],
      "name": "createDisputEvent",
      "type": "event"
    },
    {
      "anonymous": false,
      "inputs": [
        {
          "indexed": false,
          "name": "_orderID",
          "type": "uint256"
        },
        {
          "indexed": false,
          "name": "_textClose",
          "type": "string"
        }
      ],
      "name": "endCommit",
      "type": "event"
    },
    {
      "constant": false,
      "inputs": [
        {
          "name": "_name",
          "type": "string"
        },
        {
          "name": "_Hash",
          "type": "bytes32"
        },
        {
          "name": "_SwarmHash",
          "type": "bytes32"
        },
        {
          "name": "_Price",
          "type": "uint256"
        },
        {
          "name": "_Description",
          "type": "string"
        }
      ],
      "name": "addFile",
      "outputs": [],
      "payable": false,
      "stateMutability": "nonpayable",
      "type": "function"
    },
    {
      "constant": false,
      "inputs": [
        {
          "name": "_FileID",
          "type": "uint256"
        }
      ],
      "name": "createOrder",
      "outputs": [],
      "payable": true,
      "stateMutability": "payable",
      "type": "function"
    },
    {
      "constant": false,
      "inputs": [
        {
          "name": "_orderID",
          "type": "uint256"
        },
        {
          "name": "_approve",
          "type": "bool"
        }
      ],
      "name": "approveOrder",
      "outputs": [],
      "payable": false,
      "stateMutability": "nonpayable",
      "type": "function"
    },
    {
      "constant": true,
      "inputs": [
        {
          "name": "_fileID",
          "type": "uint256"
        }
      ],
      "name": "searchOrder",
      "outputs": [
        {
          "name": "",
          "type": "uint256"
        }
      ],
      "payable": false,
      "stateMutability": "view",
      "type": "function"
    },
    {
      "constant": false,
      "inputs": [
        {
          "name": "_orderID",
          "type": "uint256"
        }
      ],
      "name": "canselOrder",
      "outputs": [],
      "payable": false,
      "stateMutability": "nonpayable",
      "type": "function"
    },
    {
      "constant": false,
      "inputs": [],
      "name": "addDepositArbitrator",
      "outputs": [],
      "payable": true,
      "stateMutability": "payable",
      "type": "function"
    },
    {
      "constant": false,
      "inputs": [],
      "name": "becomeANarbitrator",
      "outputs": [],
      "payable": true,
      "stateMutability": "payable",
      "type": "function"
    },
    {
      "constant": false,
      "inputs": [
        {
          "name": "_orderID",
          "type": "uint256"
        },
        {
          "name": "_complaint",
          "type": "string"
        }
      ],
      "name": "createDisput",
      "outputs": [],
      "payable": false,
      "stateMutability": "nonpayable",
      "type": "function"
    },
    {
      "constant": false,
      "inputs": [
        {
          "name": "_orderID",
          "type": "uint256"
        },
        {
          "name": "_comments",
          "type": "string"
        }
      ],
      "name": "callArbitrator",
      "outputs": [],
      "payable": false,
      "stateMutability": "nonpayable",
      "type": "function"
    },
    {
      "constant": false,
      "inputs": [
        {
          "name": "_orderID",
          "type": "uint256"
        }
      ],
      "name": "setArbitr",
      "outputs": [
        {
          "name": "",
          "type": "uint256"
        }
      ],
      "payable": false,
      "stateMutability": "nonpayable",
      "type": "function"
    },
    {
      "constant": false,
      "inputs": [
        {
          "name": "_orderID",
          "type": "uint256"
        },
        {
          "name": "_hash",
          "type": "bytes32"
        }
      ],
      "name": "votingArbitr",
      "outputs": [],
      "payable": false,
      "stateMutability": "nonpayable",
      "type": "function"
    },
    {
      "constant": false,
      "inputs": [
        {
          "name": "_orderID",
          "type": "uint256"
        },
        {
          "name": "_voteTo",
          "type": "address"
        },
        {
          "name": "_word",
          "type": "bytes32"
        }
      ],
      "name": "reveal",
      "outputs": [],
      "payable": false,
      "stateMutability": "nonpayable",
      "type": "function"
    },
    {
      "constant": false,
      "inputs": [
        {
          "name": "_orderID",
          "type": "uint256"
        },
        {
          "name": "_isBuyerWins",
          "type": "bool"
        }
      ],
      "name": "closeOrderWithDisput",
      "outputs": [],
      "payable": false,
      "stateMutability": "nonpayable",
      "type": "function"
    },
    {
      "constant": true,
      "inputs": [
        {
          "name": "_orderID",
          "type": "uint256"
        },
        {
          "name": "_voteTo",
          "type": "address"
        },
        {
          "name": "_word",
          "type": "bytes32"
        }
      ],
      "name": "hashVote",
      "outputs": [
        {
          "name": "",
          "type": "bytes32"
        }
      ],
      "payable": false,
      "stateMutability": "pure",
      "type": "function"
    }
  ],
  "bytecode": "0x608060405234801561001057600080fd5b50612008806100206000396000f3006080604052600436106100cf5763ffffffff7c01000000000000000000000000000000000000000000000000000000006000350416630f894e9a81146100d45780631ca74ef9146100de57806339693a57146100e6578063709a115c1461010d578063747684671461016b5780637cf97fd71461018857806385f944a5146101c157806390e0a44e146101dc578063c0b62136146101f4578063c57666be14610211578063ea34369614610229578063f5ed0c8714610287578063f8ad8cd71461029f578063ff29eb9b146102aa575b600080fd5b6100dc610353565b005b6100dc6103c3565b3480156100f257600080fd5b506100dc600435600160a060020a03602435166044356103ed565b34801561011957600080fd5b5060408051602060046024803582810135601f81018590048502860185019096528585526100dc9583359536956044949193909101919081908401838280828437509497506106ed9650505050505050565b34801561017757600080fd5b506100dc600435602435151561075d565b34801561019457600080fd5b506101af600435600160a060020a03602435166044356107a9565b60408051918252519081900360200190f35b3480156101cd57600080fd5b506100dc600435602435610850565b3480156101e857600080fd5b506101af60043561090c565b34801561020057600080fd5b506100dc600435602435151561097b565b34801561021d57600080fd5b506101af600435610e4a565b34801561023557600080fd5b5060408051602060046024803582810135601f81018590048502860185019096528585526100dc958335953695604494919390910191908190840183828082843750949750610f489650505050505050565b34801561029357600080fd5b506100dc60043561119f565b6100dc600435611360565b3480156102b657600080fd5b506040805160206004803580820135601f81018490048402850184019095528484526100dc94369492936024939284019190819084018382808284375050604080516020601f60608a01358b0180359182018390048302840183018552818452989b8a359b838c01359b958601359a9199509750608090940195509193509182019181908401838280828437509497506118089650505050505050565b33600090815260076020526040902054600380548290811061037157fe5b600091825260209091206004600590920201015460ff16151560011461039657600080fd5b346003828154811015156103a657fe5b600091825260209091206003600590920201018054909101905550565b34600a11156103d157600080fd5b6103db3334611bc9565b33600090815260076020526040902055565b60008060006103fa611e6b565b6000878152600860205260408120600b8101549095508190819060031461042057600080fd5b600280548b90811061042e57fe5b600091825260209091206001600490920201015460028054600160a060020a039092169750908b90811061045e57fe5b6000918252602082206004909102018054825491975090811061047d57fe5b60009182526020918290206040805160089390930290910180546002610100600183161581026000190190921604601f810186900490950284016101209081019093528301848152929390928492909184918401828280156105205780601f106104f557610100808354040283529160200191610520565b820191906000526020600020905b81548152906001019060200180831161050357829003601f168201915b50505091835250506001828101546020808401919091526002808501546040808601919091526003860154606086015260048601805482516000199682161561010002969096011692909204601f810184900484028501840190915280845260809094019390918301828280156105d85780601f106105ad576101008083540402835291602001916105d8565b820191906000526020600020905b8154815290600101906020018083116105bb57829003601f168201915b50505091835250506005820154602080830191909152600680840154604080850191909152600790940154600160a060020a031660609093019290925260e0840151336000908152928c01909152919020549195509350915061063c8a8a8a6107a9565b905081811461064a576106e1565b3360009081526006880160205260409020600101889055600160a060020a03868116908a1614156106815760098701805460010190555b88600160a060020a031683600160a060020a031614156106a75760088701805460010190555b6008870154600988015401600314156106e15760038501805461ff001916610200179055600887015460098801546106e1918c911161075d565b50505050505050505050565b6000828152600860205260409020600481015462010000900460ff161561071357600080fd5b805442620d2f009091011061072757600080fd5b6107308361090c565b5081516107469060058301906020850190611eae565b50600401805462ff00001916620100001790555050565b600060028381548110151561076e57fe5b60009182526020909120600490910201905060026003820154610100900460ff16600281111561079a57fe5b146107a457600080fd5b505050565b6040805160208082018690526c01000000000000000000000000600160a060020a03861602828401526054808301859052835180840390910181526074909201928390528151600093918291908401908083835b6020831061081c5780518252601f1990920191602091820191016107fd565b5181516020939093036101000a60001901801990911692169190911790526040519201829003909120979650505050505050565b600b5460009060031161086257600080fd5b50600082815260086020908152604080832033845260068101909252909120829055600b810154600311156108a157600b8101805460010190556107a4565b60408051848152602081018290526011818301527f416c6c20332061726269747220766f7465000000000000000000000000000000606082015290517f1e18ab944637821862cea0e53636831f7ed833119e1983c32f2945043a3643449181900360800190a1505050565b60008060008061091a611f2c565b60038054600195508590811061092c57fe5b60009182526020808320600590920290910154978252600881526040808320600160a060020a039099168352600690980181529690208151815595015160019590950194909455509092915050565b6000610985611e6b565b6002546000908511156109e2576040805160e560020a62461bcd02815260206004820152601760248201527f676976656e20756e65786973746564206f726465724944000000000000000000604482015290519081900360640190fd5b60028054869081106109f057fe5b60009182526020822060049091020180548254919550908110610a0f57fe5b60009182526020918290206040805160089390930290910180546002610100600183161581026000190190921604601f81018690049095028401610120908101909352830184815292939092849290918491840182828015610ab25780601f10610a8757610100808354040283529160200191610ab2565b820191906000526020600020905b815481529060010190602001808311610a9557829003601f168201915b50505091835250506001828101546020808401919091526002808501546040808601919091526003860154606086015260048601805482516000199682161561010002969096011692909204601f81018490048402850184019091528084526080909401939091830182828015610b6a5780601f10610b3f57610100808354040283529160200191610b6a565b820191906000526020600020905b815481529060010190602001808311610b4d57829003601f168201915b50505091835250506005820154602082015260068201546040820152600790910154600160a060020a0390811660609092019190915260e08201516001860154929450925016331480610bd257508160e00151600160a060020a031633600160a060020a0316145b1515610c28576040805160e560020a62461bcd02815260206004820152601d60248201527f77726f6e67206275796572206f722073656c6c65722061646472657373000000604482015290519081900360640190fd5b6001830154600160a060020a0316331415610cde5760018301805475ff000000000000000000000000000000000000000000191660a860020a861515810291909117918290556040805160ff60a060020a850481161515825292909304909116151560208301526060828201819052600e908301527f6e6f207472616e73616374696f6e000000000000000000000000000000000000608083015251600080516020611fbd8339815191529160a0908290030190a15b33600160a060020a0382161415610d8f5760018301805474ff0000000000000000000000000000000000000000191660a060020a861515810291909117918290556040805160ff92840483161515815260a860020a909304909116151560208301526060828201819052600e908301527f6e6f207472616e73616374696f6e000000000000000000000000000000000000608083015251600080516020611fbd8339815191529160a0908290030190a15b60018381015460a060020a900460ff161515148015610dbd575060018381015460a860020a900460ff161515145b15610e4357610dcb85611d10565b60018301546040805160ff60a060020a840481161515825260a860020a909304909216151560208301526060828201819052600b908301527f5472616e73616374696f6e000000000000000000000000000000000000000000608083015251600080516020611fbd8339815191529181900360a00190a15b5050505050565b6000610e54611f43565b60005b600254811015610f41576002805482908110610e6f57fe5b60009182526020918290206040805160e0810182526004909302909101805483526001810154600160a060020a0381169484019490945260ff60a060020a8504811615159284019290925260a860020a90930481161515606083015260028084015460808401526003840154808316151560a085015292939260c08501926101009091041690811115610efe57fe5b6002811115610f0957fe5b9052506020810151909250600160a060020a03163314610f2857610f39565b8151841415610f3957809250610f41565b600101610e57565b5050919050565b60008060006060610f57611f7d565b6002805488908110610f6557fe5b60009182526020822060049091020180548254919750908110610f8457fe5b6000918252602090912060018701546008909202019450600160a060020a0316331480610fbd57506007840154600160a060020a031633145b1515610fc857600080fd5b60006003860154610100900460ff166002811115610fe257fe5b14610fec57600080fd5b6003850180546001919061ff00191661010083021790555060408051610160810182524281523360208083019182528284018a81526060840187905260006080850181905260a0850181905260c0850181905260e085018890526101008501879052600160a060020a0389811661012087015261014086018290528d82526008845295902084518155925160018401805473ffffffffffffffffffffffffffffffffffffffff1916919096161790945592518051929391926110b49260028501920190611eae565b50606082015180516110d0916003840191602090910190611eae565b50608082015160048201805460a085015160c08601511515620100000262ff0000199115156101000261ff001995151560ff199094169390931794909416919091171691909117905560e08201518051611134916005840191602090910190611eae565b506101008201518051600783015560208101516008830155604001516009820155610120820151600a8201805473ffffffffffffffffffffffffffffffffffffffff1916600160a060020a0390921691909117905561014090910151600b9091015550505050505050565b60008060006002848154811015156111b357fe5b60009182526020909120600490910201600181015490935060a060020a900460ff161580156111ee5750600183015460a860020a900460ff16155b15156111f957600080fd5b600383015460ff1615611256576040805160e560020a62461bcd02815260206004820181905260248201527f746865206f7264657220686173206265656e20616c7265616479207061796564604482015290519081900360640190fd5b60016003840154610100900460ff16600281111561127057fe5b141561127b57600080fd5b6001830154600160a060020a0316915033821461129757600080fd5b50600282015460038301805460ff19166001179055604051600160a060020a0383169082156108fc029083906000818181858888f193505050501580156112e2573d6000803e3d6000fd5b5060018301546040805160ff60a060020a840481161515825260a860020a909304909216151560208301526060828201819052600b908301527f5472616e73616374696f6e000000000000000000000000000000000000000000608083015251600080516020611fbd8339815191529181900360a00190a150505050565b611368611e6b565b6000808381548110151561137857fe5b60009182526020918290206040805160089390930290910180546002610100600183161581026000190190921604601f8101869004909502840161012090810190935283018481529293909284929091849184018282801561141b5780601f106113f05761010080835404028352916020019161141b565b820191906000526020600020905b8154815290600101906020018083116113fe57829003601f168201915b50505091835250506001828101546020808401919091526002808501546040808601919091526003860154606086015260048601805482516000199682161561010002969096011692909204601f810184900484028501840190915280845260809094019390918301828280156114d35780601f106114a8576101008083540402835291602001916114d3565b820191906000526020600020905b8154815290600101906020018083116114b657829003601f168201915b50505091835250506005820154602082015260068201546040820152600790910154600160a060020a0316606090910152600054909250831115611587576040805160e560020a62461bcd02815260206004820152603b60248201527fd0a4d0b0d0b9d0bb20d18120d183d0bad0b0d0b7d0b0d0bdd0bdd18bd0bc204960448201527f4420d0bdd0b520d181d183d189d0b5d181d182d0b2d183d0b5d1820000000000606482015290519081900360840190fd5b6060820151341015611609576040805160e560020a62461bcd02815260206004820152602c60248201527f676976656e206d6f6e65792073686f756c64206265206772656174657220746860448201527f616e207468652070726963650000000000000000000000000000000000000000606482015290519081900360840190fd5b6040805160e081018252848152336020820190815260009282018381526060808401858152908701516080850190815260a0850186815260c086018781526002805460018181018084559a839052895160049092027f405787fa12a823e0f2b7631cc41b3ba8828b3321ca811111fa75cd3aa3bb5ace810192835598517f405787fa12a823e0f2b7631cc41b3ba8828b3321ca811111fa75cd3aa3bb5acf8a0180549951985173ffffffffffffffffffffffffffffffffffffffff19909a16600160a060020a039092169190911774ff0000000000000000000000000000000000000000191660a060020a981515989098029790971775ff000000000000000000000000000000000000000000191660a860020a981515989098029790971790955592517f405787fa12a823e0f2b7631cc41b3ba8828b3321ca811111fa75cd3aa3bb5ad087015590517f405787fa12a823e0f2b7631cc41b3ba8828b3321ca811111fa75cd3aa3bb5ad1909501805460ff1916951515959095178086559051939695949293929161ff0019909116906101009084908111156117a857fe5b02179055505050036000819052600660209081526060808501516040805188815293840185905283810191909152519293507f8dfeb0267d301a3c68b6b58986366f04dfb03f5802faef1a6419f1cbc1109bba92918290030190a1505050565b33600090815260016020526040812054906060818084151561187b5760098054600181018083556000929092527f6e1540171b6c0c960b71a7020d9f60077f6af931a8bbf590da0223dacf75c7af01805473ffffffffffffffffffffffffffffffffffffffff1916331790559350611916565b33600090815260016020908152604091829020805483518184028101840190945280845290918301828280156118d057602002820191906000526020600020905b8154815260200190600101908083116118bc575b505050505092508260008151811015156118e657fe5b90602001906020020151915060008281548110151561190157fe5b90600052602060002090600802016006015493505b506000805460408051610100810182528c815260208082018d90529181018b9052606081018a90526080810189905260a0810183905260c081018790523360e082015260018301808555938052805180519394939192600886027f290decd9548b62a8d60345a988386fc84ba6bc95484008f6362f93160ef3e56301926119a09284920190611eae565b5060208281015160018301556040830151600283015560608301516003830155608083015180516119d79260048501920190611eae565b5060a0820151816005015560c0820151816006015560e08201518160070160006101000a815481600160a060020a030219169083600160a060020a031602179055505050506001600033600160a060020a0316600160a060020a031681526020019081526020016000208190806001815401808255809150509060018203906000526020600020016000909192909190915055507fa7d75d4f1f397d376eb2e26a8e05f28bb16bf9d62d56ecd14b2b44159032e4358a8a8a8a8a868a336040518080602001896000191660001916815260200188600019166000191681526020018781526020018060200186815260200185815260200184600160a060020a0316600160a060020a0316815260200183810383528b818151815260200191508051906020019080838360005b83811015611b1b578181015183820152602001611b03565b50505050905090810190601f168015611b485780820380516001836020036101000a031916815260200191505b50838103825287518152875160209182019189019080838360005b83811015611b7b578181015183820152602001611b63565b50505050905090810190601f168015611ba85780820380516001836020036101000a031916815260200191505b509a505050505050505050505060405180910390a150505050505050505050565b6040805160a081018252600160a060020a0393841681526000602080830182815283850183815260608501968752600160808601818152600380549283018155865295517fc2575a0e9e593c00f959f8c92f12db2869c3395a3b0502d05e2516446f71f85b60058302908101805473ffffffffffffffffffffffffffffffffffffffff191692909b169190911790995591517fc2575a0e9e593c00f959f8c92f12db2869c3395a3b0502d05e2516446f71f85c890155517fc2575a0e9e593c00f959f8c92f12db2869c3395a3b0502d05e2516446f71f85d88015594517fc2575a0e9e593c00f959f8c92f12db2869c3395a3b0502d05e2516446f71f85e87015591517fc2575a0e9e593c00f959f8c92f12db2869c3395a3b0502d05e2516446f71f85f909501805460ff1916951515959095179094553384526004905290912081905590565b6000806000600284815481101515611d2457fe5b60009182526020822060049091020193506003840154610100900460ff166002811115611d4d57fe5b14611d5757600080fd5b600383015460ff1615611db4576040805160e560020a62461bcd02815260206004820181905260248201527f746865206f7264657220686173206265656e20616c7265616479207061796564604482015290519081900360640190fd5b6002830154835460008054929450918110611dcb57fe5b6000918252602090912060089091020160070154600184810154600160a060020a03909216925060a060020a90910460ff161515148015611e1b575060018381015460a860020a900460ff161515145b15611e655760038301805460ff19166001179055604051600160a060020a0382169083156108fc029084906000818181858888f19350505050158015610e43573d6000803e3d6000fd5b50505050565b60408051610100810182526060808252600060208301819052928201839052808201839052608082015260a0810182905260c0810182905260e081019190915290565b828054600181600116156101000203166002900490600052602060002090601f016020900481019282601f10611eef57805160ff1916838001178555611f1c565b82800160010185558215611f1c579182015b82811115611f1c578251825591602001919060010190611f01565b50611f28929150611f9f565b5090565b604080518082019091526000808252602082015290565b6040805160e081018252600080825260208201819052918101829052606081018290526080810182905260a081018290529060c082015290565b6060604051908101604052806000815260200160008152602001600081525090565b611fb991905b80821115611f285760008155600101611fa5565b905600947e2832d9f0ef35e50ea91840d54dda1d0f87fdc4daeb1894bbb77e621ed139a165627a7a72305820b5dc1d47d06ca31990dfcc1fdc8f4dff1deb3f39fcc41609547a9bbac2050c460029",
  "source": "pragma solidity ^0.4.0;\n//pragma experimental ABIEncoderV2;\n\ncontract MarketPlace {\n    constructor() public {}\n\n    struct sFile {\n        string Name;\n        bytes32 Hash;\n        bytes32 SwarmHash;\n        uint Price;\n        string Description;\n        uint FileID;\n        uint SellerID;\n        address Owner;\n\n    }\n\n    enum statusDisput {empty,exist,close}\n\n    struct oneOrder {//    ,     .\n        //uint OrderID;\n        uint FileID;\n        address BayerAddress;\n        bool OwnerApprove; //       \n        bool BayerApprove; //      \n        uint FixPrise; //    \n        bool IsPayed;\n        statusDisput ExistDisput;\n\n    }\n\n    struct arbitrator {\n        address arbitratorAddress;\n        // uint ID;\n        uint DisputCount;\n        uint Rating;\n        uint Deposit; ///         \n        bool Exist;\n        //\n    }\n\n    //enum statusArbitr {set,};\n    struct arbitrVote {\n        bytes32 hash;\n        bytes32 codeWord;\n\n    }\n    struct voting {\n        mapping(address => arbitrVote) votes; //fixme  !!!!!!!!!!!!!!\n        uint endVoting;\n        uint toOwner;\n        uint toBayer;\n    }\n\n    struct disput {//todo:      id   \n        uint DateCreate;\n        address WhoCreate;\n        string Complaint; // \n        string AnswerComplaint; // \n        bool ConsentOwner;\n        bool ConsentBayer;\n        bool CallArbitr;\n        string arbirtatorComment;\n        voting Voting;\n        address closedDispute_in_Favor;\n        uint arbitrVoteCount;\n\n    }\n    //mapping(address=>uint[]) arbitrationDisputs; //      \n\n    event NewFile(string _name, bytes32 _Hash, bytes32 _SwarmHash, uint _Price,\n        string _Description, uint _FileID, uint _SellerID, address _owner);\n\n    //  mapping(address => sFile[]) dbFile;\n    sFile[] dbFiles;\n    mapping(address => uint[]) sellerFileIDs;\n    //mapping(uint => arbitrator[]) arbitratorDB; //ID        \n    // address[] arbitratorID; //    - \n    // mapping(address => uint) deposit;\n\n    oneOrder[] allOrders;\n    arbitrator[] allArbitrator; //    !!       !!!         \n                                //    ))     80    ))\n    mapping(address => uint) arbitr_to_id; //   id \n\n    mapping(uint => address) ownerOrdersID;\n    mapping(uint => address) bayersOrdersID;\n    mapping(address => uint) arbitratorID;\n    mapping(uint => disput) allDisput;\n\n\n\n    //disput[] allDisput; //    fixme:   mapping uint - > disput (  uint orderID )\n    //todo (        )\n\n    //mapping //    =>\n\n\n    address[] allVendorsAtTheCurrentMoment; //  :    \n    // todo      \n    function addFile(string _name, bytes32 _Hash, bytes32 _SwarmHash, uint _Price, string _Description) public {\n        uint _fileCount = sellerFileIDs[msg.sender].length;\n        uint _SellerID;\n        if (_fileCount == 0) {\n            _SellerID = allVendorsAtTheCurrentMoment.push(msg.sender);\n        } else {\n            uint[] memory sellerFilesIDs = sellerFileIDs[msg.sender];\n            uint sellerFirstFileID = sellerFilesIDs[0];\n            _SellerID = dbFiles[sellerFirstFileID].SellerID;\n        }\n\n        uint _FileID = dbFiles.length;\n        dbFiles.push(sFile(_name, _Hash, _SwarmHash, _Price, _Description, _FileID, _SellerID, msg.sender));\n        sellerFileIDs[msg.sender].push(_FileID);\n\n        emit NewFile(_name, _Hash, _SwarmHash, _Price, _Description, _FileID, _SellerID, msg.sender);\n    }\n\n    //    function list() public view returns(sFile[]) {\n    //        sFile[] memory _allfiles;\n    //        for (uint i = 0; i < dbFiles.length; i++) {\n    //            _allfiles.push(dbFiles[i]);\n    //        }\n    //        return _allfiles;\n    //\n    //    }\n\n\n    event EventCreateOrder(uint _FileID, uint _orderID, uint _price);\n\n    function createOrder(uint _FileID) public payable {\n        sFile memory BayFile = dbFiles[_FileID];\n        require(dbFiles.length >= _FileID, \"   ID  \");\n        require(BayFile.Price <= msg.value, \"given money should be greater than the price\");\n        uint _orderID = allOrders.push(oneOrder(_FileID, msg.sender, false, false, BayFile.Price, false, statusDisput.empty)) - 1;\n        //0-  ; 0-ID \n        ownerOrdersID[_orderID];\n        bayersOrdersID[_orderID];\n        emit EventCreateOrder(_FileID, _orderID, BayFile.Price);\n    }\n\n    event eventApproveOrder(bool _owner, bool bayer, string statusTransaktion);\n\n    function approveOrder(uint _orderID, bool _approve) public {\n        require(allOrders.length >= _orderID, \"given unexisted orderID\");\n        //todo   \n\n        oneOrder storage _order = allOrders[_orderID];\n        sFile memory _fileInfo = dbFiles[_order.FileID];\n        address _owner = _fileInfo.Owner;\n        require(msg.sender == _order.BayerAddress || msg.sender == _fileInfo.Owner, \"wrong buyer or seller address\");\n\n        if (msg.sender == _order.BayerAddress) {\n            _order.BayerApprove = _approve;\n            emit eventApproveOrder(_order.OwnerApprove, _order.BayerApprove, \"no transaction\");\n        }\n        if (msg.sender == _owner) {\n            _order.OwnerApprove = _approve;\n            emit eventApproveOrder(_order.OwnerApprove, _order.BayerApprove, \"no transaction\");\n        }\n        //   true  closeOrder\n        if (_order.OwnerApprove == true && _order.BayerApprove == true) {\n            closeOrder(_orderID);\n            emit eventApproveOrder(_order.OwnerApprove, _order.BayerApprove, \"Transaction\");\n        }\n\n    }\n\n    function closeOrder(uint _orderID) private {\n        oneOrder storage _order = allOrders[_orderID];\n        require(_order.ExistDisput == statusDisput.empty);\n        require(_order.IsPayed == false, \"the order has been already payed\");\n//     \n        uint amount = _order.FixPrise;\n        address _owner = dbFiles[_order.FileID].Owner;\n\n        if (_order.OwnerApprove == true && _order.BayerApprove == true) {\n            _order.IsPayed = true;\n            _owner.transfer(amount);\n        }\n    }\n\n    function searchOrder(uint _fileID) view public returns (uint) {\n        oneOrder memory _order;\n        for (uint i = 0; i < allOrders.length; i++) {\n            _order = allOrders[i];\n\n            if (msg.sender != _order.BayerAddress) {\n                continue;\n            }\n\n            if (_order.FileID == _fileID) {\n                return i;\n            }\n            //      ((\n        }\n    }\n\n    function canselOrder(uint _orderID) public {//todo    \n        oneOrder storage _order = allOrders[_orderID];\n        require(_order.OwnerApprove == false && _order.BayerApprove == false);\n        require(_order.IsPayed == false, \"the order has been already payed\");\n        require(_order.ExistDisput != statusDisput.exist);\n        address _bayerAddress = _order.BayerAddress;\n        require(_bayerAddress == msg.sender);\n        uint amount = _order.FixPrise;\n        _order.IsPayed = true;\n        _bayerAddress.transfer(amount);\n        emit eventApproveOrder(_order.OwnerApprove, _order.BayerApprove, \"Transaction\");\n\n    }\n\n    uint constant minArbitorDeposit = 10;\n\n    function addDepositArbitrator() public payable { //  \n        uint _ID1 = arbitratorID[msg.sender];\n        require(allArbitrator[_ID1].Exist == true);\n        allArbitrator[_ID1].Deposit += msg.value;\n    }\n\n    function becomeANarbitrator() public payable { // \n        require(minArbitorDeposit <= msg.value);\n        arbitratorID[msg.sender] = newArbitrator(msg.sender, msg.value);\n    }\n\n    function newArbitrator(address arbitr, uint _deposit) private returns (uint) { // \n            uint _id = allArbitrator.push(arbitrator({\n            arbitratorAddress : arbitr,\n            Deposit : _deposit,\n            DisputCount : 0,\n            Rating : 0,\n            Exist : true\n            })) - 1;\n            arbitr_to_id[msg.sender] = _id;\n            return (_id);\n    }\n\n    event createDisputEvent(uint _orderID, string _complaint, address _owner, address _bayer); // \n\n    function createDisput(uint _orderID, string _complaint) public {\n        oneOrder storage _order = allOrders[_orderID];\n        sFile storage _fileInfo = dbFiles[_order.FileID];\n        require(_order.BayerAddress == msg.sender || _fileInfo.Owner == msg.sender);\n        require(_order.ExistDisput == statusDisput.empty);\n        _order.ExistDisput = statusDisput.exist;\n        address _arbitrAddress;\n        string memory _emptiString;\n        voting memory emptyVoting;\n      //  bytes32 _emptyHash;\n        allDisput[_orderID] = disput({\n            DateCreate: now,\n            WhoCreate: msg.sender,\n            Complaint: _complaint,\n            AnswerComplaint: _emptiString,\n            ConsentOwner: false,\n            ConsentBayer: false,\n            CallArbitr: false,\n            arbirtatorComment: _emptiString,\n            Voting: emptyVoting,\n            closedDispute_in_Favor: _arbitrAddress,\n            arbitrVoteCount: 0\n            });\n        //todo       3 \n    }\n\n    function callArbitrator (uint _orderID, string _comments) public { // \n        disput storage _disput = allDisput[_orderID];\n        require(_disput.CallArbitr == false);\n        require(_disput.DateCreate + 10 days < now);\n        setArbitr(_orderID);\n        _disput.arbirtatorComment = _comments;\n        _disput.CallArbitr = true;\n\n    }\n\n    function setArbitr (uint _orderID) public returns(uint){ ///  \n        // -       \n        uint _chose = 1; //todo:    \n        address _arbitr = allArbitrator[_chose].arbitratorAddress;\n        disput storage _disput = allDisput[_orderID];\n        arbitrVote memory _arbitrVote;\n        _disput.Voting.votes[_arbitr] = _arbitrVote; //todo:   voting   - !!!!\n\n    }\n\n\n\n    // a arbitr voting commit stage\n// fixme  ____      \n// fixme\n\n            event endCommit(uint _orderID, string _textClose);//   !!!!!!!!\n\n    function votingArbitr (uint _orderID, bytes32 _hash) public  {\n        require(_disput.arbitrVoteCount < 3);\n        disput storage _disput = allDisput[_orderID];\n        _disput.Voting.votes[msg.sender].hash = _hash;\n\n        if (_disput.arbitrVoteCount < 3) {\n            _disput.arbitrVoteCount++;\n        } else {\n            emit endCommit(_orderID, \"All 3 arbitr vote\");\n        }\n    }\n\n    function reveal(uint _orderID, address _voteTo, bytes32 _word) public {\n        disput storage _disput = allDisput[_orderID];\n        require(_disput.arbitrVoteCount == 3);\n        //arbitrVote memory _arbitrVote = _disput.Voting.votes[msg.sender];\n        address _bayer = allOrders[_orderID].BayerAddress;\n\n        oneOrder storage _order = allOrders[_orderID];\n        sFile memory _fileInfo = dbFiles[_order.FileID];\n        address _owner = _fileInfo.Owner;\n\n        bytes32 _firstHash = _disput.Voting.votes[msg.sender].hash;\n        bytes32 _secondHash = hashVote(_orderID, _voteTo, _word);\n\n        if (_firstHash != _secondHash){\n             return;\n        }\n\n        _disput.Voting.votes[msg.sender].codeWord = _word;\n\n        if(_bayer == _voteTo){\n            _disput.Voting.toBayer++;\n        }\n        if(_owner == _voteTo ){\n            _disput.Voting.toOwner++;\n        }\n\n        if(_disput.Voting.toBayer+_disput.Voting.toOwner == 3){\n            _order.ExistDisput = statusDisput.close;\n\n            closeOrderWithDisput(_orderID, _disput.Voting.toBayer>_disput.Voting.toOwner);\n        }\n\n    }\n\n    function closeOrderWithDisput(uint _orderID, bool _isBuyerWins){\n        oneOrder storage _order = allOrders[_orderID];\n        require(_order.ExistDisput == statusDisput.close);\n\n    }\n\n\n    function hashVote(uint _orderID, address _voteTo, bytes32 _word) public pure returns (bytes32) {\n        return keccak256(abi.encodePacked(_orderID, _voteTo, _word));\n    }\n\n\n\n}",
  "sourcePath": "/Users/victor/Documents/Blockchain/week7/marketplace/contracts/MarketPlace.sol",
  "compiler": {
    "name": "solc",
    "version": "0.4.24+commit.e67f0147.Emscripten.clang"
  },
  "schemaVersion": "2.0.1",
  "updatedAt": "2018-11-18T12:51:39.190Z"
}